:020000040000fa
:080000000002040000000000f2
:020000040000fa
:0400080016030000db
:020000040000fa
:04000c0028030000c5
:020000040000fa
:0400100040030000a9
:020000040000fa
:040014001e030000c7
:020000040000fa
:0400180030030000b1
:020000040000fa
:04001c0038030000a5
:020000040000fa
:040020004803000091
:020000040000fa
:040024006e04000066
:020000040000fa
:040028006e04000062
:020000040000fa
:04002c006e0400005e
:020000040000fa
:040030006e0400005a
:020000040000fa
:04003400360400008e
:020000040000fa
:040038006e04000052
:020000040000fa
:04003c006e0400004e
:020000040000fa
:040040006e0400004a
:020000040000fa
:04004400be030000f7
:020000040000fa
:040048006e04000042
:020000040000fa
:04004c006e0400003e
:020000040000fa
:040050006e0400003a
:020000040000fa
:040054006e04000036
:020000040000fa
:040058006e04000032
:020000040000fa
:04005c006e0400002e
:020000040000fa
:040060006e0400002a
:020000040000fa
:040064006e04000026
:020000040000fa
:04006800160400007a
:020000040000fa
:04006c00f603000097
:020000040000fa
:040070006e0400001a
:020000040000fa
:040074008c030000f9
:020000040000fa
:040078006e04000012
:020000040000fa
:04007c006e0400000e
:020000040000fa
:040080006e0400000a
:020000040000fa
:040084006e04000006
:020000040000fa
:040088006e04000002
:020000040000fa
:04008c006e040000fe
:020000040000fa
:040090006e040000fa
:020000040000fa
:040094006e040000f6
:020000040000fa
:040098006e040000f2
:020000040000fa
:04009c006e040000ee
:020000040000fa
:0400a0006e040000ea
:020000040000fa
:0400a4006e040000e6
:020000040000fa
:0400a8006e040000e2
:020000040000fa
:0400ac006e040000de
:020000040000fa
:0400b0006e040000da
:020000040000fa
:0400b4006e040000d6
:020000040000fa
:0400b8006e040000d2
:020000040000fa
:0400bc006e040000ce
:020000040000fa
:0400c0006e040000ca
:020000040000fa
:0400c4006e040000c6
:020000040000fa
:0400c8006e040000c2
:020000040000fa
:0400cc006e040000be
:020000040000fa
:0400d0006e040000ba
:020000040000fa
:0400d4006e040000b6
:020000040000fa
:0400d8006e040000b2
:020000040000fa
:0400dc006e040000ae
:020000040000fa
:0400e0006e040000aa
:020000040000fa
:0400e4006e040000a6
:020000040000fa
:0400e8006e040000a2
:020000040000fa
:0400ec006e0400009e
:020000040000fa
:0400f0006e0400009a
:020000040000fa
:0400f4006e04000096
:020000040000fa
:0400f8006e04000092
:020000040000fa
:0400fc006e0400008e
:020000040000fa
:040100006e04000089
:020000040000fa
:040104006e04000085
:020000040000fa
:040108006e04000081
:020000040000fa
:04010c006e0400007d
:020000040000fa
:040110006e04000079
:020000040000fa
:040114006e04000075
:020000040000fa
:040118006e04000071
:020000040000fa
:04011c006e0400006d
:020000040000fa
:040120006e04000069
:020000040000fa
:040124006e04000065
:020000040000fa
:040128006e04000061
:020000040000fa
:04012c006e0400005d
:020000040000fa
:040130006e04000059
:020000040000fa
:040134006e04000055
:020000040000fa
:040138006e04000051
:020000040000fa
:04013c006e0400004d
:020000040000fa
:040140006e04000049
:020000040000fa
:040144006e04000045
:020000040000fa
:040148006e04000041
:020000040000fa
:04014c006e0400003d
:020000040000fa
:040150006e04000039
:020000040000fa
:040154006e04000035
:020000040000fa
:040158006e04000031
:020000040000fa
:04015c006e0400002d
:020000040000fa
:040160006e04000029
:020000040000fa
:040164006e04000025
:020000040000fa
:040168006e04000021
:020000040000fa
:04016c006e0400001d
:020000040000fa
:040170006e04000019
:020000040000fa
:040174006e04000015
:020000040000fa
:040178006e04000011
:020000040000fa
:04017c006e0400000d
:020000040000fa
:040180006e04000009
:020000040000fa
:040184006e04000005
:020000040000fa
:040188006e04000001
:020000040000fa
:04018c006e040000fd
:020000040000fa
:040190006e040000f9
:020000040000fa
:040194006e040000f5
:020000040000fa
:040198006e040000f1
:020000040000fa
:04019c006e040000ed
:020000040000fa
:0401a0006e040000e9
:020000040000fa
:0401a4006e040000e5
:020000040000fa
:0401a8006e040000e1
:020000040000fa
:0401ac006e040000dd
:020000040000fa
:0401b0006e040000d9
:020000040000fa
:0401b4006e040000d5
:020000040000fa
:0401b8006e040000d1
:020000040000fa
:0401bc006e040000cd
:020000040000fa
:0401c0006e040000c9
:020000040000fa
:0401c4006e040000c5
:020000040000fa
:0401c8006e040000c1
:020000040000fa
:0401cc006e040000bd
:020000040000fa
:0401d0006e040000b9
:020000040000fa
:0401d4006e040000b5
:020000040000fa
:0401d8006e040000b1
:020000040000fa
:0401dc006e040000ad
:020000040000fa
:0401e0006e040000a9
:020000040000fa
:0401e4006e040000a5
:020000040000fa
:0401e8006e040000a1
:020000040000fa
:0401ec006e0400009d
:020000040000fa
:0401f0006e04000099
:020000040000fa
:0401f4006e04000095
:020000040000fa
:0401f8006e04000091
:020000040000fa
:0401fc006e0400008d
:020000040000fa
:040200006e04000088
:020000040000fa
:040204006e04000084
:020000040000fa
:040208006e04000080
:020000040000fa
:04020c006e0400007c
:020000040000fa
:040210006e04000078
:020000040000fa
:040214006e04000074
:020000040000fa
:040218006e04000070
:020000040000fa
:04021c006e0400006c
:020000040000fa
:040220006e04000068
:020000040000fa
:040224006e04000064
:020000040000fa
:040228006e04000060
:020000040000fa
:04022c006e0400005c
:020000040000fa
:040230006e04000058
:020000040000fa
:040234006e04000054
:020000040000fa
:040238006e04000050
:020000040000fa
:04023c006e0400004c
:020000040000fa
:040240006e04000048
:020000040000fa
:040244006e04000044
:020000040000fa
:040248006e04000040
:020000040000fa
:04024c006e0400003c
:020000040000fa
:040250006e04000038
:020000040000fa
:040254006e04000034
:020000040000fa
:040258006e04000030
:020000040000fa
:04025c006e0400002c
:020000040000fa
:040260006e04000028
:020000040000fa
:040264006e04000024
:020000040000fa
:040268006e04000020
:020000040000fa
:04026c006e0400001c
:020000040000fa
:040270006e04000018
:020000040000fa
:040274006e04000014
:020000040000fa
:040278006e04000010
:020000040000fa
:04027c006e0400000c
:020000040000fa
:040280006e04000008
:020000040000fa
:040284006e04000004
:020000040000fa
:040288006e04000000
:020000040000fa
:04028c006e040000fc
:020000040000fa
:040290006e040000f8
:020000040000fa
:040294006e040000f4
:020000040000fa
:040298006e040000f0
:020000040000fa
:04029c006e040000ec
:020000040000fa
:0402a0006e040000e8
:020000040000fa
:0402a4006e040000e4
:020000040000fa
:0402a8006e040000e0
:020000040000fa
:0402ac006e040000dc
:020000040000fa
:0402b0006e040000d8
:020000040000fa
:0402b4006e040000d4
:020000040000fa
:0402b8006e040000d0
:020000040000fa
:0402bc006e040000cc
:020000040000fa
:0402c0006e040000c8
:020000040000fa
:0402c4006e040000c4
:020000040000fa
:0402c8006e040000c0
:020000040000fa
:0402cc006e040000bc
:020000040000fa
:0402d0006e040000b8
:020000040000fa
:0402d4006e040000b4
:020000040000fa
:0402d8006e040000b0
:020000040000fa
:0402dc006e040000ac
:020000040000fa
:0402e0006e040000a8
:020000040000fa
:0402e4006e040000a4
:020000040000fa
:0402e8006e040000a0
:020000040000fa
:0402ec006e0400009c
:020000040000fa
:0402f0006e04000098
:020000040000fa
:0402f4006e04000094
:020000040000fa
:0402f8006e04000090
:020000040000fa
:0402fc006e0400008c
:020000040000fa
:040300006e04000087
:020000040000fa
:040304006e04000083
:020000040000fa
:040308006e0400007f
:020000040000fa
:04030c006e0400007b
:020000040000fa
:040310006e04000077
:020000040000fa
:10040000af2521000eff24000e018800000000002f
:10041000000020000000e000020032000001200087
:1004200020028800140007003c0107000000e000e3
:1004300003003a00c0202100010020000200370024
:100440000000200001002000810f70000100320038
:100450000f000700000020000000e0000200320052
:100460000000020000000000460b02000000000037
:100470000040da000000fe00002020000000e00044
:1004800002003200002020009001880000000600d9
:10049000a1028800800478000000eb001f003700f4
:1004a000e284440054a0b4009905ba00e2844400f8
:1004b00054a0b4009906ba00e284440054a0b400e9
:1004c0000006eb00476fde00fd07b200ae018800ba
:1004d000636ce10003003a000ad801000000eb0061
:1004e0000e003700606ce10008003a00004deb00a0
:1004f0000a05e800020039003420ec000af0a000f0
:100500008b05e900f9ff3e00040037006168e10057
:10051000010032000086eb000b00070019c7ba008b
:100520000e04e0001905ba0003003a000a00e000da
:10053000dbff3a0000000600fe07b200ae028800b2
:100540008a047800f5ff37000cd0a300e20f4d00bd
:100550001c003b0089027800354dba000a05e8000e
:10056000020039003420ec000af0a0008b05e900fd
:100570000f003200254dba000a05e80002003900dc
:100580003420ec000af0a0008b05e90008003200de
:100590000c00e0000600320015cdba000a05e800a4
:1005a000020039003420ec000af0a0008b05e900bd
:1005b0008984e80054a0b4000b00e000e2ff3a0098
:1005c000000006009902ba00055d78008b05e9007d
:1005d000f7ff3200c82ade00055d78008b05e900d0
:1005e000f3ff32000c00e000f1ff320019ddba0029
:1005f000eeff37007c19040000000000181804000a
:1006000000000000ca19040000000000e018040007
:1006100000000000a208040000000000180b040005
:1006200000000000240b0400000000003600f80069
:10063000c028a9000000eb00080c07003600f800f5
:100640000a0c0700c048a90010002000030c070096
:100650003600f800c068a90020002000ff0b07004a
:100660003600f800c088a90030002000fb0b07000e
:100670003600f800c0a8a90040002000f70b0700d2
:100680003600f800c608a90070002000f30b070030
:100690003600f800204680004800de00614060001f
:1006a0000004e00003003200c508a900c0002000db
:1006b000ea0b0700204680004f00de000040780073
:1006c0000004e00003003200c5e8a900800020001b
:1006d000e20b0700204680004500de00614060001c
:1006e0000004e00003003200c4a8a900900020002c
:1006f000da0b0700204680004400de006140600005
:100700000004e00003003200c488a900a00020001b
:10071000d20b0700ffff37003600f800809fbe00b5
:10072000829fbe00849fbe00869fbe000000fa002c
:10073000104080004300de0061406000e14f500047
:1007400006003a00108180000000e0000200320044
:1007500010818000000001000268a9000000000074
:100760000080fa004f03be004f02be004f01be00e2
:100770004f00be003600f900004006003600f800c9
:10078000809fbe00829fbe00849fbe00869fbe00e9
:100790000000fa00208180000000e000020032002a
:1007a00020818000000001006025210010409000a1
:1007b0008040e8006025210011409800602521005c
:1007c00011c0b3000148780000e8a9000000000053
:1007d0000080fa004f03be004f02be004f01be0072
:1007e0004f00be003600f900004006003600f80059
:1007f000809fbe00829fbe00849fbe00869fbe0079
:100800000000fa00e080800000000100000000000d
:100810000080fa004f03be004f02be004f01be0031
:100820004f00be003600f900004006003600f80018
:10083000809fbe00829fbe00849fbe00869fbe0038
:100840000000fa00f08080000000010000000000bd
:100850000080fa004f03be004f02be004f01be00f1
:100860004f00be003600f900004006003600f800d8
:10087000809fbe00829fbe00849fbe00869fbe00f8
:100880000000fa00408180000000e0000200320019
:100890004081800000000100802521001040900070
:1008a0008040e8008025210011409800802521002b
:1008b00011c0b300014878000068a90000000000e2
:1008c0000080fa004f03be004f02be004f01be0081
:1008d0004f00be003600f900004006000040da007c
:1008e0000000fe00f03fb1000180b10006003500bd
:1008f000ee03090000000000403fb1000180b1009c
:10090000fbff3d001000b000203fb00002003500aa
:100910000080090000000000000006000000050043
:10092000800078000108a3000f003a00010278005f
:10093000b4017800f2ef2f00030141008381ea0047
:100940000301610003082800030161000200e000c8
:100950000c003200010178003204e0000500320092
:1009600082007800fbff3700010178003204e000cc
:1009700002003a000080500000000600820078006b
:0c098000e8ff370084007800e8ff370033
:020000040000fa
:10098c0000000000c1c0000081c100004001000057
:10099c0001c30000c00300008002000041c200003f
:1009ac0001c60000c00600008007000041c700001f
:1009bc0000050000c1c5000081c400004004000017
:1009cc0001cc0000c00c0000800d000041cd0000e7
:1009dc00000f0000c1cf000081ce0000400e0000cf
:1009ec00000a0000c1ca000081cb0000400b0000cf
:1009fc0001c90000c00900008008000041c80000c7
:100a0c0001d80000c01800008019000041d9000076
:100a1c00001b0000c1db000081da0000401a00005e
:100a2c00001e0000c1de000081df0000401f00003e
:100a3c0001dd0000c01d0000801c000041dc000036
:100a4c0000140000c1d4000081d500004015000046
:100a5c0001d70000c01700008016000041d600002e
:100a6c0001d20000c01200008013000041d300002e
:100a7c0000110000c1d1000081d000004010000026
:100a8c0001f00000c03000008031000041f1000096
:100a9c0000330000c1f3000081f20000403200007e
:100aac0000360000c1f6000081f70000403700005e
:100abc0001f50000c03500008034000041f4000056
:100acc00003c0000c1fc000081fd0000403d000026
:100adc0001ff0000c03f0000803e000041fe00000e
:100aec0001fa0000c03a0000803b000041fb00000e
:100afc0000390000c1f9000081f800004038000006
:100b0c0000280000c1e8000081e900004029000035
:100b1c0001eb0000c02b0000802a000041ea00001d
:100b2c0001ee0000c02e0000802f000041ef0000fd
:100b3c00002d0000c1ed000081ec0000402c0000f5
:100b4c0001e40000c02400008025000041e5000005
:100b5c0000270000c1e7000081e6000040260000ed
:100b6c0000220000c1e2000081e3000040230000ed
:100b7c0001e10000c02100008020000041e00000e5
:100b8c0001a00000c06000008061000041a10000d5
:100b9c0000630000c1a3000081a2000040620000bd
:100bac0000660000c1a6000081a70000406700009d
:100bbc0001a50000c06500008064000041a4000095
:100bcc00006c0000c1ac000081ad0000406d000065
:100bdc0001af0000c06f0000806e000041ae00004d
:100bec0001aa0000c06a0000806b000041ab00004d
:100bfc0000690000c1a9000081a800004068000045
:100c0c0000780000c1b8000081b9000040790000f4
:100c1c0001bb0000c07b0000807a000041ba0000dc
:100c2c0001be0000c07e0000807f000041bf0000bc
:100c3c00007d0000c1bd000081bc0000407c0000b4
:100c4c0001b40000c07400008075000041b50000c4
:100c5c0000770000c1b7000081b6000040760000ac
:100c6c0000720000c1b2000081b3000040730000ac
:100c7c0001b10000c07100008070000041b00000a4
:100c8c0000500000c1900000819100004051000014
:100c9c0001930000c05300008052000041920000fc
:100cac0001960000c05600008057000041970000dc
:100cbc0000550000c19500008194000040540000d4
:100ccc00019c0000c05c0000805d0000419d0000a4
:100cdc00005f0000c19f0000819e0000405e00008c
:100cec00005a0000c19a0000819b0000405b00008c
:100cfc0001990000c0590000805800004198000084
:100d0c0001880000c04800008049000041890000b3
:100d1c00004b0000c18b0000818a0000404a00009b
:100d2c00004e0000c18e0000818f0000404f00007b
:100d3c00018d0000c04d0000804c0000418c000073
:100d4c0000440000c1840000818500004045000083
:100d5c0001870000c047000080460000418600006b
:100d6c0001820000c042000080430000418300006b
:100d7c0000410000c1810000818000004040000063
:020000040000fa
:100d8c000200fa00000f78001e007800e10f5000fe
:100d9c000c0032001e0078000000e000070032005a
:100dac001e007800e20f5000080032001e00780090
:100dbc00e30f5000070032000800370001eba800d9
:100dcc000600370011eba8000400370021eba80047
:100ddc000200370031eba80000000000000000000a
:100dec000080fa00000006000400fa00000f7800f2
:100dfc00110798001e007800e10f50000e00320021
:100e0c001e0078000000e000070032001e00780091
:100e1c00e20f50000c0032001e007800e30f50006f
:100e2c000d003200100037009e0090002158880001
:100e3c00062bef000c0037009e009000a158880094
:100e4c00162bef00080037009e00900021598800f7
:100e5c00262bef00040037009e009000a15988005b
:100e6c00362bef0000000000000000000080fa00ac
:100e7c00000006000400fa00000f7800110798002b
:100e8c001e007800e10f50000d0032001e007800ab
:100e9c000000e000070032001e007800e20f500056
:100eac000a0032001e007800e30f50000a003200e6
:100ebc000c0037009e009000615888000900370034
:100ecc009e009000e1588800060037009e009000bc
:100edc0061598800030037009e009000e15988009a
:100eec0000000000000000000080fa000000060076
:100efc000000fa000060fe00000000000080fa0014
:100f0c00000006001a00fa0020579800415798007c
:100f1c0062579800035f980001808000f00f20005a
:100f2c0000806000000f78000040eb0070479800d4
:100f3c00ee5090002e50900080cf50000d003600e7
:100f4c00ee5090007200470010c0500060479800af
:100f5c00be0090001e0078008088b9003007980011
:100f6c00fe4090007200470010c04000704798008f
:100f7c0010003700ae5090007600470010c05000b3
:100f8c0060479800be0090001e0078008088b90071
:100f9c0030079800ae509000114f98000040eb00c5
:100fac00004f9800ce0090003e0090000080500052
:100fbc00300798000040eb00304f98008e5890009e
:100fcc004e50900080cf50000d0036008e5890008f
:100fdc007400470010c05000204f9800de009000b5
:100fec001e0078008088b90050079800be48900019
:100ffc007400470010c04000304f980010003700bc
:10100c00ce5090007800470010c05000204f980040
:10101c00de0090001e0078008088b9005007980010
:10102c00ce509000514f98000040eb00404f98007c
:10103c00ee0090005e009000008050005007980079
:10104c0011808000f00f20000080600010079800d5
:10105c00de0090003e009000808f500016003100a2
:10106c00be0090005e009000008050007007980059
:10107c007e4890000080fb009e0090008088b900a4
:10108c00200798006e4890000080fb009e009000a6
:10109c008180b90070079800de0090006400470062
:1010ac00908040007e4890000080fb000080400053
:1010bc00000f980015003700de0090003e009000f5
:1010cc0000805000700798007e4890000080fb0064
:1010dc009e0090008088b900200798006e48900010
:1010ec000080fb009e0090008180b9007007980082
:1010fc00de00900064004700908050007e48900015
:10110c000080fb0000805000000f98008e089000bb
:10111c0000082000008060000000e00003003200a6
:10112c001e5090000040e800105798001e50900090
:10113c000080fa00000006001c00fa00b07080006d
:10114c004200de00614060000004e0002a01320031
:10115c00660047007208470090007800310798003d
:10116c00601d2100500798000040eb0020479800bc
:10117c004c0037000040eb00404798000e80e80020
:10118c001080fb00611d21000080400010417800a0
:10119c00424f980000c8b300504798000040eb0045
:1011ac0030479800320037000000eb00000f780049
:1011bc00050037009e007800010fe800803e2000fb
:1011cc00808f50000e013e001070800000407800af
:1011dc00614060000004e000f6ff3200ce48900051
:1011ec005e40900000c060000004e000020032008d
:1011fc00042ea80001003700042ea900650047004a
:10120c001080fb000000d100504798004e40900029
:10121c0000404000404798000000eb00000f7800b1
:10122c00050037009e007800010fe800803e20008a
:10123c00808f5000f4003e00107080000040780059
:10124c0061406000e14f5000f6ff320010708000ea
:10125c004300de0061406000ce40900000c0700092
:10126c00404798003e4090000040e800304798000e
:10127c003e409000e74f5000cbff3600be00900080
:10128c00660047000108e80010017800320798005a
:10129c004e419000824878002e4090000040e800bb
:1012ac00204798002e409000e74f5000b1ff3600c9
:1012bc006e00470072084700900078007107980094
:1012cc0062002000fe0090000000eb007308070095
:1012dc00500f9800be58900020012000660040007e
:1012ec006e40780080cf5000c9003a00ae58900094
:1012fc0020012000670040006e40780080cf500035
:10130c00c5003a000040eb00204798000d00370064
:10131c000e80e8001081fb000e80e8001080fb00be
:10132c0021012000810041006ec17800011d2100c7
:10133c0000804000024878002e4090000040e800f9
:10134c00204798002e409000e54f5000f0ff3600eb
:10135c00001d2100204090000080fb0000808800d0
:10136c0001808000f00f2000808f500002003a00b6
:10137c000010200000808800008080004300dd0009
:10138c0000808800001d2100304090000080fb0090
:10139c001080880011808000f00f2000808f50009a
:1013ac0002003a000010200010808800108080009d
:1013bc004300dd0010808800008080004800de00c3
:1013cc000040780000007800e900b9000040780087
:1013dc0011808000c808de00814078000140500078
:1013ec0068404000004f98008e4890007200210029
:1013fc000149780007d0bf0005f0b70011808000cc
:10140c00f07f2000808f500003003e000e489000bb
:10141c000040e900004f98008e48900062002100c7
:10142c000149780006d0bf0004f0b70001808000ad
:10143c00f07f2000808f500006003e0004d0bf00db
:10144c006940400006f0b70005d0bf00694040007d
:10145c0007f0b70007d0bf000080fb00f117210098
:10146c00008040009041780006d0bf000080fb0057
:10147c00f1172100008040001041780005d0bf001a
:10148c000080fb00f1172100008040001042780022
:10149c0004d0bf000080fb00f11721000080400049
:1014ac00104078008440780096fe07002bf0b700bf
:1014bc0007d0bf000080fb00e1122100008040003b
:1014cc009041780006d0bf000080fb00e1122100a3
:1014dc00008040001041780005d0bf000080fb0068
:1014ec00e1122100008040001042780004d0bf00bf
:1014fc000080fb00e11221000080400010407800c9
:10150c00844078007ffe07002af0b700018080003d
:10151c0000402000808f500024003a001180800091
:10152c0000402000808f50000f003600118080009a
:10153c0000c02f00008040001080880011808000c7
:10154c00b0aa2a000008b8004408de00000f98007a
:10155c000e0890008040780000c8b30000c0400026
:10156c002bf0b7000e0037001180800000402000e7
:10157c00010050001080880011808000b0aa2a0061
:10158c000008b8004408de00000f98000e08900018
:10159c008040780000c8b300014050002bf0b70029
:1015ac002bd0bf000040ea002af0b7002ad0bf00c1
:1015bc008080fb00800220008088b900c17124006b
:1015cc0000805000000888002bd0bf008080fb00fa
:1015dc00800220008088b900c17124000080500076
:1015ec0030088800000707009b060700198ea8002a
:1015fc0019cea800090037000000000007003700d2
:10160c000000000005003700000000000300370058
:10161c000000000001003700000000000080fa000c
:10162c00000006000000fa00198ea900f70607005a
:10163c00000000000080fa00000006000000fa0024
:10164c0019cea9008d060700000000000080fa00ea
:10165c00000006000000fa00262cef00605f2a0054
:10166c00a10020009cfc0700192ea900194ea9000e
:10167c00188ea900000000000080fa00000006008f
:10168c000800fa00bd070700e00607007b0607000c
:10169c00194ea800192ea800188ea800262cef00b1
:1016ac00208a20001507070080b12000c50607001e
:1016bc0040b220005f06070010002000b0fd0700bc
:1016cc00003020008000780010002000e9fd0700a9
:1016dc00800021008000780010002000c2fd07006f
:1016ec00186ea800262cef000040eb00004f78008d
:1016fc000040eb0020479800fdfd07004080800073
:10170c008000eb0082382100828ab9000001780049
:10171c00e011b90082014200823821000200b800b9
:10172c0001814100820078004409dd004c00de009c
:10173c000000710020079800640047005100200051
:10174c0010814000706626000090b900c288de004f
:10175c004f90de000080500080407800e0ccb30059
:10176c0000c0400060479800ee409000601d2100d2
:10177c0001487800001d2100104090000080fb0003
:10178c006c0060000000e0000300320010c0b300e9
:10179c0010479800020037000040eb0010479800fb
:1017ac009e4090002e40900080cf50000d003200e3
:1017bc001e419000224798001e4090000004e0005b
:1017cc00080032001e4078000004e00003003200e4
:1017dc000040eb00004f78000200370010c0b3004f
:1017ec00004f78001e4078000004e0000200320038
:1017fc00196ea80001003700196ea900001d210008
:10180c00104078000004e00002003d0018eea80033
:10181c000100370018eea900001d210010407800cf
:10182c008080fb0000042000008060000000e000cd
:10183c0002003200190ea80001003700190ea90091
:10184c0018d0bf000004e00011003a0010708000b6
:10185c004200de00614060000004e0000a0032003b
:10186c0019d0bf000040e80019f0b70019d0bf0034
:10187c00e94f50001c0036001970ef0010c0b30087
:10188c0018f0b700180037001970ef001600370079
:10189c0018d0bf00e14f500012003a0010708000c9
:1018ac004200de00614060000004e00002003200f3
:1018bc001970ef000c00370019d0bf000040e80091
:1018cc0019f0b700910121009140780010c3b300ca
:1018dc0080cf50000400360020c0b30018f0b700d1
:1018ec00010037005bff0700b02f250051002000de
:1018fc00f9fb070080ff37000000fa0001e2a900a5
:10190c00000000000080fa00000006000000fa0051
:10191c002228a9002208a900000000000080fa007b
:10192c00000006000000fa00104180000000d10009
:10193c00614060000004e00005003a0010418000a6
:10194c0000407800614060000004e00002003200ba
:10195c0010002000010037000000eb000040780070
:10196c00614060000080fa00000006000000fa00f0
:10197c002228a9002208a900000000000080fa001b
:10198c00000006000000fa000228a9000208a900c5
:10199c00000000000080fa00000006000000fa00c1
:1019ac000228a8000208a800000000000080fa002d
:1019bc00000006000200fa00000f780010408000c2
:1019cc000000d100614060000004e00013003a0008
:1019dc001040800000407800614060000004e0008e
:1019ec000e003a00104080000000d1006140600001
:1019fc000004e00009003a0010408000004078002c
:101a0c00614060000004e00004003a0020b42100b2
:101a1c0001002000b0fb0700f2ff370000000000bf
:101a2c000080fa00000006000000fa0000108000a0
:101a3c004f00de00004078000004e00007003a0090
:101a4c000422ef000000280000108800b0152000d0
:101a5c005010880010c0b300010037000040eb00ac
:101a6c000080fa00000006000000fa000010800060
:101a7c004f00de00004078000004e00006003a0051
:101a8c000222a8000202a80000c2a80001e2a800dd
:101a9c0010c0b300010037000040eb000080fa00da
:101aac00000006000000fa00000000000080fa00b0
:101abc00000006000000fa000002a8000000000070
:101acc000080fa00000006000000fa000022a800c6
:101adc00000000000080fa00000006000000fa0080
:101aec000042a800000000000080fa000000060080
:101afc000000fa00201080004f00de00004078004b
:101b0c000080fb0000f0a7000000ea000000ea00e3
:101b1c004f00de00004078000080fa000000060054
:101b2c000000fa000062a800000000000080fa002b
:101b3c00000006000000fa007010800000407800e1
:101b4c000080fa00000006000200fa00004f780046
:101b5c001e80fb0060108800000000000080fa006e
:101b6c00000006000000fa0000a2a9000082a800f4
:101b7c00000000000080fa00000006000000fa00df
:101b8c0000a2a8000082a800000000000080fa005b
:101b9c00000006000000fa000182a800000000000e
:101bac000080fa00000006000000fa0020108000ff
:101bbc000000d100614060000004e00005003a0024
:101bcc002010800000407800614060000004e000bc
:101bdc000200320010002000010037000000eb0072
:101bec0000407800614060000080fa0000000600b0
:101bfc000000fa00201080004300de00614060000d
:101c0c000080fb0000f0a7000000ea000000ea00e2
:101c1c004f00de00004078000080fa000000060053
:101c2c000000fa00201080004500de0061406000da
:101c3c00614068000080fa00000006000000fa0015
:101c4c00201080004400de00614060000080fb003a
:101c5c0000f0a7000000ea000000ea004f00de00e0
:101c6c00004078000080fa00000006000000fa0036
:101c7c00201080004500de00614060000080fb0009
:101c8c0000f0a7000000ea000000ea004f00de00b0
:101c9c00004078000080fa00000006000000fa0006
:101cac00201080004200de00614060000080fb00dc
:101cbc0000f0a7000000ea000000ea004f00de0080
:101ccc00004078000080fa00000006000000fa00d6
:101cdc000542a900000000000080fa000000060088
:101cec000000fa0002a2a800000000000080fa0028
:101cfc00000006000000fa0002a2a900000000008b
:101d0c000080fa00000006000000fa0002c2a800e1
:101d1c00000000000080fa00000006000000fa003d
:101d2c0002c2a900000000000080fa0000000600ba
:101d3c000200fa00000f78009e007800d180880025
:101d4c00000000000080fa00000006000200fa000b
:101d5c00000f78009e007800e180880000000000f1
:101d6c000080fa00000006000200fa00000f780064
:101d7c009e007800f1808800000000000080fa00ce
:101d8c00000006000200fa00004f780010c0b300fb
:101d9c00580007000000e000020032001000200094
:101dac000b0037008009210011002000cafa07003f
:101dbc0000c8b3009e40780080cf500002003a006b
:101dcc0010002000020037001e4078004900070078
:101ddc000080fa00000006000600fa0020079800b8
:101dec00d40207000000e0000200320010002000c6
:101dfc003e003700c0c7b300eb0207000000e00054
:101e0c000200320010002000380037002d030700bc
:101e1c00e24f500002003a0010002000330037005f
:101e2c002e009000bbfa07002047980010c0b300aa
:101e3c00104798002800370000ccb300004f780002
:101e4c009e4090002e40900080cf500002003a003f
:101e5c0000c4b300004f78001e407800d202070087
:101e6c000000e00002003200100020001f003700cc
:101e7c0014030700e24f500002003a00100020004b
:101e8c001a003700ae009000640047000108e8001b
:101e9c00100178002207980011407800004f78005c
:101eac001e407800c00207000000e0000200320073
:101ebc00100020000d00370002030700e24f500015
:101ecc0002003a0010002000080037001e4090006d
:101edc000040e800104798009e4090002e40900073
:101eec0080cf5000d4ff3400a20207000080fa001b
:101efc00000006000200fa00004f78008d02070077
:101f0c000000e00002003200100020002200370028
:101f1c00c0c7b300a40207000000e00002003200ba
:101f2c00100020001c003700e6020700e24f5000b2
:101f3c0002003a0010002000170037000040eb00b0
:101f4c00990207000000e00002003200100020009f
:101f5c0011003700db020700e24f500002003a008c
:101f6c00100020000c0037001e4078008e02070085
:101f7c000000e000020032001000200006003700d4
:101f8c00d0020700e24f500002003a00100020007f
:101f9c0001003700770207000080fa0000000600fd
:101fac000200fa00004f7800b07d2900a102200049
:101fbc0049fa070080c3b300ceff07000000e00021
:101fcc00020032001000200051003700d0822000a7
:101fdc000100200040fa070090c3b300c5ff0700c2
:101fec000000e00002003200100020004800370022
:101ffc00d08220000100200037fa070040c1b30056
:10200c00bcff07000000e0000200320010002000be
:10201c003f003700d0822000010020002efa07007c
:10202c001e4078006f4060000047b000b1ff070011
:10203c000000e000020032001000200034003700e5
:10204c00d08220000100200023fa07001e80fb0034
:10205c004400de00004078004045b000a5ff0700ba
:10206c000000e000020032001000200028003700c1
:10207c00d08220000100200017fa0700c0c6b30070
:10208c009cff07000000e00002003200100020005e
:10209c001f00370090742f00410d20000efa07002e
:1020ac0080c3b30093ff07000000e0000200320081
:1020bc001000200016003700d08220000100200004
:1020cc0005fa0700c0c0b3008aff07000000e0005b
:1020dc0002003200100020000d003700d0822000da
:1020ec0001002000fcf9070010c0b30081ff0700bd
:1020fc000000e00002003200100020000400370055
:10210c001013220021002000f3f907000000eb005f
:10211c000080fa00000006000000fa000088200091
:10212c00101388001000200020138800c000280025
:10213c0000138800000000000080fa000000060078
:10214c000400fa00000f780011079800000000004e
:10215c00001380000000d10061406000e14f50008e
:10216c00fbff32001e007800104078000080fb005e
:10217c004013880000000000001380004500de00c2
:10218c0061406000e14f5000fbff320040138000c3
:10219c00804078001e00900001487800000000008c
:1021ac000080fa00000006001800fa00100f9800da
:1021bc00210f9800320f98000000eb00000f780000
:1021cc000000eb00100798000000eb00700798006f
:1021dc000000eb00000f9800100020006007980032
:1021ec001e0890000000e00007003a000000eb0021
:1021fc005007980064004700700847009000780072
:10220c002107980004003700ee0190005307980056
:10221c009e089000210798003e0890000000e00006
:10222c0007003a000000eb004007980066004700ea
:10223c006e084700900178003307980004003700bf
:10224c00ee00900041079800be09900033079800fb
:10225c0000000000001380000000d100614060000d
:10226c00e14f5000fbff32002600370000138000c6
:10227c000000d10061406000e14f50000c003200c2
:10228c002e009000104078000080fb004013880066
:10229c006400470064014700ea004700920178009f
:1022ac001188410090007800210798001e0fe8006b
:1022bc00001380004500de00614060000004e00077
:1022cc0010003a0040138000804078003e009000df
:1022dc00014878006600470066014700e8004700a7
:1022ec009201780011884100900078003107980025
:1022fc000e80e8008e80e8001108e800900178005c
:10230c00130798002e0890009e007800808f5000d4
:10231c00d6ff390015003700001380004500de00a1
:10232c00614060000004e00010003a00401380009f
:10233c00804078003e00900001487800660047001d
:10234c0066014700e80047009201780011884100bf
:10235c0090007800310798000e80e8008e80e8002d
:10236c001108e80090017800130798009e00900077
:10237c002e089000808f5000e7ff39001e00780077
:10238c000080fa00000006000400fa0020479800c4
:10239c000e80e8008e00780069ff07001e40780070
:1023ac000080fa00000006000600fa00000f78001a
:1023bc0011079800220798002e0190009e009000b3
:1023cc001e00780078ff07000080fa00000006006d
:1023dc000000fa00101380004a00de00614060002b
:1023ec000004e00002003a000000eb00010037009e
:1023fc00100020000080fa00000006000000fa0027
:0c240c00001380000080fa0000000600b1
:020000040000fa
:10241800361200002000000080000000201000009c
:102428000200000082000000ffff000022100000f0
:1024380002000000800000005612000002000000a8
:10244800800000002410000002000000800000004e
:102458002610000002000000800000001a10000092
:102468000600000080000000581200000200000072
:10247800800000002810000002000000800000001a
:102488002c100000a4010000820000000a000b00cc
:10249800000c00000d000f000010000012001300d7
:1024a8000015000018001a00001d00001f0023007e
:1024b800002600002a002e000033000038003d00ee
:1024c800004300004a005100005a000062006c00fe
:1024d8000077000083009000009f0000ae00c0005d
:1024e80000d300000b014300017b0100b301eb00a6
:1024f800012202005a02920002ca020002033a00b4
:1025080003720300aa03e200031a040052048900bc
:1025180004c10400f904310005690500a105d900ca
:10252800051106004906810006b80600f0062800d5
:10253800076007009807d00007080900410a7a00d9
:102548000bb20c00ea0d23000f5c10009411cc00b4
:10255800120514003e15760016ae1700e718200085
:102568001a581b00901cc9001d021f003a20720057
:1025780021ab2200e4231c00255426008d27c60029
:1025880028fe2900362b6f002ca82d00e02e1800fd
:10259800305131008a32c20033fa340033366c00cd
:1025a80037a43800dc3915003b4e3c00863dbe00a0
:1025b8003ef73f003041680042a04300d944120072
:1025c800464a47008248bb0049f44a002c4c640044
:1025d8004d9d4e00d64f0e00514652007f53b80015
:1025e80054b854008060400020010100010101003e
:1025f8008068500038202000202020008070600073
:1026080050404000404040008078700068606000a2
:102618006060600080808000808080008080800012
:102628008088900098a0a000a0a0a0008090a000a2
:10263800b0c0c000c0c0c0008098b000c8e0e000d2
:10264800e0e0e00080a0c000e0ffff00ffffff0027
:1026580001010100010120004060800020202000cd
:102668002020380050688000404040004040500022
:102678006070800060606000606068007078800052
:10268800808080008080800080808000a0a0a000e2
:10269800a0a0980090888000c0c0c000c0c0b00052
:1026a800a0908000e0e0e000e0e0c800b098800082
:1026b800ffffff00ffffe000c0a08000d011000076
:1026c8006600000080000000001000001a000000f2
:1026d800800000002a1000000200000082000000b4
:0826e8008080000000000000ea
:020000040000fa
:1026f0000000fa005000200010608800a0002000b8
:1027000020608800062cef000a2cef001a2cef0046
:102710001e2cef0000082000006188000008200047
:102720000062880000082000006388000040240048
:1027300011322400d2bc2a00f2608800f1608800c7
:10274000106188000040200011322400d2bc2a0011
:10275000f2608800f160880010628800004020006c
:1027600011322400d2bc2a00f2608800f160880097
:10277000106388003044220011322400d2bc2a00a9
:10278000f2608800f160880020618800b00f2000ae
:1027900011322400d2bc2a00f2608800f160880067
:1027a00020628800b00f200011322400d2bc2a0021
:1027b000f2608800f16088002063880050002000eb
:1027c00030618800462cef00662cef00282cef00cb
:1027d000482cef00682cef00400620005061880074
:1027e0004a2cef006a2cef002c2cef004c2cef0051
:1027f0006c2cef00322cef00522cef00722cef000b
:10280000342cef00542cef00742cef00382cef0028
:10281000582cef00782cef003a2cef005a2cef00e8
:102820007a2cef003c2cef005c2cef007c2cef00ae
:102830003e2cef005e2cef007e2cef000000280005
:1028400000608800000000000080fa000000060020
:102850000000fa00000000000080fa0000000600fe
:102860000000fa00304080004900de006140600056
:102870000004e00002003200f5ff07000728a9006d
:10288000000000000080fa00000006000000fa00ce
:10289000000000000080fa00000006000000fa00be
:1028a000304080004900de00614060000004e0002c
:1028b00002003200f5ff07000bc8a900000000006d
:1028c0000080fa00000006000000fa00000000008e
:1028d0000080fa00000006000000fa00304080008e
:1028e0004900de00614060000004e00002003200a8
:1028f000f5ff07000be8a900000000000080fa00c7
:10290000000006000000fa00000000000080fa004d
:10291000000006000000fa00304080004900de00a0
:10292000614060000004e00002003200f5ff070093
:102930000c08a900000000000080fa00000006005a
:102940000000fa0014aea90018aea80014cea90029
:1029500018cea800b008200001002000e1f7070011
:1029600018aea900b008200001002000ddf7070024
:1029700018cea9000000eb000080fa00000006005d
:102980000000fa0014aea90018aea90014cea900e8
:1029900018cea800b008200001002000d1f70700e1
:1029a00014aea80014cea8000000eb000080fa00ce
:1029b000000006000400fa002047980014aea900a9
:1029c00014cea900ae409000014f780080c0b30043
:1029d00010479800140037001e4078000004e00003
:1029e00002003d0018aea8000100370018aea90093
:1029f0001e40780000404000004f780018cea8002c
:102a00007011200001002000b6f7070018cea900c1
:102a1000100d200001002000b2f707001e409000ba
:102a20000040e900104798001e4090000004e000bc
:102a3000e9ff3a0014aea8000000eb000080fa00a5
:102a4000000006000200fa0014aea80014cea9008f
:102a500080c0b300104798001700370050042000d2
:102a6000010020009ff7070018cea8001e40780044
:102a700000404000004f7800b07080004500de004c
:102a8000614060000004e000040032001e40780055
:102a90000004a000004f7800030037001e407800bb
:102aa0000004a100004f780018cea9001e4090003d
:102ab0000040e900104798001e4090000004e0002c
:102ac000e6ff3a001e4078000080fa000000060091
:102ad0000200fa0014aea80014cea90018cea80077
:102ae00050042000010020007ef70700b070800035
:102af0004500de0061406000004f780018cea9005c
:102b00001e4078000080fa00000006000000fa0075
:102b100014aea90018aea90014cea90050042000dc
:102b2000010020006ff7070018cea800b0082000b1
:102b3000010020006bf7070018cea90014aea80012
:102b40000000eb000080fa00000006000000fa0020
:102b500014aea90018aea80014cea90018cea80083
:102b600050042000010020005ef7070018cea900e5
:102b700050042000010020005af7070014aea800fe
:102b80000000eb000080fa00000006000000fa00e0
:102b9000003a80000080fa00000006000200fa00ff
:102ba000faff0700000f78001e00780025000700dc
:102bb0000004e0000200320000002800720007005c
:102bc0001e0078002b0007000004e0000200320025
:102bd000000024006c0007001e007800330007008e
:102be0000004e00002003200002020006600070020
:102bf0001e0078003b0007000004e00002003200e5
:102c000000082000600007001e0078004300070055
:102c10000004e00002003200000420005a00070017
:102c20001e0078004b0007000004e00002003200a4
:102c30000001200054000700000000000080fa009e
:102c4000000006000400fa00100798000040eb00a6
:102c5000004f78001e0090000000e00002003d00e0
:102c600010c0b300004f78001e4078000080fa00ca
:102c7000000006000400fa00100798000040eb0076
:102c8000004f78009e00900000002400008060004b
:102c90000000e0000200320010c0b300004f7800d6
:102ca0001e4078000080fa00000006000400fa00d0
:102cb000100798000040eb00004f78009e00900045
:102cc00000202000008060000000e00002003200d0
:102cd00010c0b300004f78001e4078000080fa005a
:102ce000000006000400fa00100798000040eb0006
:102cf000004f78009e0090000008200000806000d7
:102d00000000e0000200320010c0b300004f780065
:102d10001e4078000080fa00000006000400fa005f
:102d2000100798000040eb00004f78009e009000d4
:102d300000042000008060000000e000020032007b
:102d400010c0b300004f78001e4078000080fa00e9
:102d5000000006000400fa00100798000040eb0095
:102d6000004f78001e009000700060000000e0003e
:102d70000200320010c0b300004f78001e407800ff
:102d80000080fa00000006000200fa00000f780040
:102d90001e0078008080ea00003a80000080600019
:102da000003a8800000000000080fa0000000600e1
:102db0000000fa004027ef00000000000080fa0049
:102dc000000006000000fa00008120000058880082
:102dd000022bef00062bef00000021002058880096
:102de0000a2bef00082bef000c2bef000e2bef004f
:102df0000088a9000080200080588800d0002000b2
:102e000090588800162bef0000002100a058880081
:102e10001a2bef00182bef001c2bef001e2bef00de
:102e200001c8a900202bef00222bef00262bef007a
:102e300000002100205988002a2bef00282bef00ea
:102e40002c2bef002e2bef000308a900302bef00f6
:102e5000322bef00362bef0000002100a059880034
:102e60003a2bef00382bef003c2bef003e2bef000e
:102e70000488a90011eba800000000000080fa00ff
:102e8000000006000000fa00000000000080fa00c8
:102e9000000006000000fa00004080004400de0050
:102ea000614060000004e00002003200f5ff07000e
:102eb0000088a900000000000080fa000000060061
:102ec0000000fa00000000000080fa000000060088
:102ed0000000fa00004080004e00de00614060000b
:102ee0000004e00002003200f5ff070001c8a9005d
:102ef000000000000080fa00000006000000fa0058
:102f0000000000000080fa00000006000000fa0047
:102f1000104080004800de00614060000004e000d6
:102f200002003200f5ff07000308a90000000000be
:102f30000080fa00000006000000fa000000000017
:102f40000080fa00000006000000fa002040800027
:102f50004400de00614060000004e0000200320036
:102f6000f5ff07000488a900000000000080fa00b7
:102f7000000006000000fa000621ef008063260032
:102f800060088800000128008008880020818000f7
:102f90000000e00002003a008081210028000700c4
:102fa00000e8a90020e8a800602521008040eb008f
:102fb00001487800000000000080fa0000000600d0
:102fc0000200fa00000f78009e0078006108880077
:102fd000602521008040eb000148780000000000df
:102fe0000080fa00000006000000fa00600880007f
:102ff0000080fa00000006000200fa00000f7800ce
:103000009e00780031088800602521008040eb0098
:1030100001487800000000000080fa00000006006f
:103020000000fa00300880000080fa00000006006e
:103030000000fa00000000000080fa000000060016
:103040000200fa00000f780020e8a9009e00780036
:103050002181880020e8a800000000000080fa001c
:10306000000006000000fa00602521008040eb000f
:103070000148780020e8a80011e1a8000000000045
:103080000080fa00000006000000fa0011e1a9002b
:1030900020e8a900000000000080fa0000000600ff
:1030a0000200fa0060252100104f78001e407800d1
:1030b0000004e00003003200602521008040eb00a6
:1030c000014878001e4078000080fa0000000600e9
:1030d0000000fa0060252100104090000080fb00f5
:1030e0000080fa00000006000000fa0060252100c0
:1030f0008040eb0011409800000000000080fa00c2
:10310000000006000000fa000021ef0080632600a6
:1031100010088800000128002008880040818000f5
:103120000000e00002003a00008e210028000700a5
:103130000068a9002068a800802521008040eb00dd
:1031400001487800000000000080fa00000006003e
:103150000200fa00000f78009e0078001108880035
:10316000802521008040eb0001487800000000002d
:103170000080fa00000006000000fa00100880003d
:103180000080fa00000006000200fa00000f78003c
:103190009e00780001088800802521008040eb0017
:1031a00001487800000000000080fa0000000600de
:1031b0000000fa00000880000080fa00000006000d
:1031c0000000fa00000000000080fa000000060085
:1031d0000200fa00000f78002068a9009e00780025
:1031e000418188002068a800000000000080fa00eb
:1031f000000006000000fa00802521008040eb005e
:10320000014878002068a80005e1a800000000003f
:103210000080fa00000006000000fa0005e1a900a5
:103220002068a900000000000080fa0000000600ed
:103230000200fa0080252100104f78001e4078001f
:103240000004e00003003200802521008040eb00f4
:10325000014878001e4078000080fa000000060057
:103260000000fa0080252100104090000080fb0043
:103270000080fa00000006000000fa00802521000e
:103280008040eb0011409800000000000080fa0030
:10329000000006000000fa00042eef00182eef00d8
:1032a000d00120000070880070062000a070880007
:1032b0000c2eef00202eef00400020005070880000
:1032c0001e2eef00062eef001a2eef000001200048
:1032d00070708800222eef001c4ea800c0972100bd
:1032e000090007000268a9002268a8000000000089
:1032f0000080fa00000006000000fa000000000054
:103300000080fa00000006000200fa00000f7800ba
:103310002268a9009e007800118188002268a80018
:10332000000000000080fa00000006000200fa0021
:10333000000f78001e007800f3ff07000000000077
:103340000080fa00000006000000fa00404e28004d
:10335000001988000040200010198800f0ff2100ab
:10336000201988002823ef00001020007019880021
:103370003023ef0000102000901988002623ef0072
:10338000a09c210007000700000000000080fa0058
:10339000000006000000fa00000000000080fa00b3
:1033a000000006000200fa00000f78001e007800fe
:1033b00030818800000000000080fa000000060054
:1033c0000000fa00004080004d00de006140600017
:1033d0000004e00006003200308180000000e000c0
:1033e00002003200308180000000010001a8a90025
:1033f000000000000080fa00000006000000fa0053
:1034000000202300203a88004827ef004e27ef00d5
:10341000d0122000303a88006027ef006227ef00ca
:103420006427ef006627ef006a27ef006c27ef00a4
:103430006e27ef0012c0b30080c7b300a1c9b3006c
:1034400033742000804978008149780082497800ef
:1034500012c0b30060c4b30071c5b3002374200070
:103460008049780081497800824978000000000096
:10347000103a800000407800614060000004e000e5
:10348000fbff3a0000000000103a80004500de001b
:1034900061406000e14f5000fbff3a000000000077
:1034a0000080fa00000006000a00fa0020079800d9
:1034b00031079800420798002e0090000080ea0033
:1034c000200798000000eb00000f78001400370080
:1034d0001e007800e6004700110040009040780090
:1034e000214798002e0090004800de008e80e80002
:1034f0009180fb002e01900002816800f10f2000f6
:103500008100610001814000614c28008100410080
:103510009100780001006800200798001e0fe80065
:103520004e0090009e007800808f5000e8ff35002c
:103530002e0090000080ea000080fa0000000600e3
:103540000200fa00000f780021028000200f200006
:10355000808060001e00780001007000200288005a
:10356000000000000080fa00000006000000fa00e1
:10357000c3e8a800000000000000000000000000f8
:103580000080fa00000006000000fa0041ff07007a
:103590000c00070099ff07006bff070054fc0700b1
:1035a00074fe0700d7fe070006fe0700efff0700c6
:1035b00000022000e2ff0700000000000080fa0087
:1035c000000006000000fa004042800000c0a00099
:1035d00000d0a00000e0a00040428800104280001f
:1035e00000c0a00000d0a00000e0a10010428800b0
:1035f0000042800000c0a10000d0a00000e0a100b7
:1036000000428800000000000080fa000000060070
:103610000000fa0079ff0700000000000080fa00b7
:10362000000006000000fa00003a80000080fa0066
:10363000000006000000fa0058fd0700000000002e
:103640000080fa00000006000000fa00d8fd070024
:10365000000000000080fa0000000600000f780063
:103660009e00780001818800ffff37000000fa000b
:103670006023210080077800e024210000018800f9
:0c368000000000000080fa0000000600be
:020000040000fa
:020000040005f5
:04570000ffffff00a8
:020000040000fa
:020000040005f5
:04572000ffff000087
:020000040000fa
:020000040005f5
:04573000f8ff00007e
:020000040000fa
:020000040005f5
:045738007bff0000f3
:020000040000fa
:020000040005f5
:04574000f7ff00006f
:020000040000fa
:020000040005f5
:04574800ffff00005f
:020000040000fa
:020000040005f5
:04575000fdff000059
:020000040000fa
:020000040005f5
:04575800000000004d
:020000040000fa
:020000040005f5
:045760000000000045
:020000040000fa
:020000040005f5
:04576800000000003d
:020000040000fa
:020000040005f5
:045770000000000035
:020000040000fa
:020000040005f5
:04577800feff000030
:020000040000fa
:020000040005f5
:04578000ffff000027
:020000040000fa
:020000040005f5
:04578800ffff00001f
:00000001FF
